{
    "_format": "hh-sol-artifact-1",
    "contractName": "KeysManager",
    "sourceName": "contracts/KeysManager.sol",
    "abi": [
        {
            "inputs": [
                {
                    "internalType": "address",
                    "name": "_core",
                    "type": "address"
                }
            ],
            "stateMutability": "nonpayable",
            "type": "constructor"
        },
        {
            "anonymous": false,
            "inputs": [
                {
                    "indexed": false,
                    "internalType": "bytes",
                    "name": "publicKey",
                    "type": "bytes"
                }
            ],
            "name": "ActivateValidator",
            "type": "event"
        },
        {
            "anonymous": false,
            "inputs": [
                {
                    "indexed": true,
                    "internalType": "bytes",
                    "name": "publicKey",
                    "type": "bytes"
                },
                {
                    "indexed": true,
                    "internalType": "bytes",
                    "name": "signature",
                    "type": "bytes"
                },
                {
                    "indexed": true,
                    "internalType": "address",
                    "name": "nodeOperator",
                    "type": "address"
                }
            ],
            "name": "AddValidator",
            "type": "event"
        },
        {
            "anonymous": false,
            "inputs": [
                {
                    "indexed": false,
                    "internalType": "address",
                    "name": "account",
                    "type": "address"
                }
            ],
            "name": "Paused",
            "type": "event"
        },
        {
            "anonymous": false,
            "inputs": [
                {
                    "indexed": false,
                    "internalType": "address",
                    "name": "account",
                    "type": "address"
                }
            ],
            "name": "Unpaused",
            "type": "event"
        },
        {
            "inputs": [],
            "name": "PUBKEY_LENGTH",
            "outputs": [
                {
                    "internalType": "uint256",
                    "name": "",
                    "type": "uint256"
                }
            ],
            "stateMutability": "view",
            "type": "function"
        },
        {
            "inputs": [],
            "name": "SIGNATURE_LENGTH",
            "outputs": [
                {
                    "internalType": "uint256",
                    "name": "",
                    "type": "uint256"
                }
            ],
            "stateMutability": "view",
            "type": "function"
        },
        {
            "inputs": [],
            "name": "VALIDATOR_DEPOSIT",
            "outputs": [
                {
                    "internalType": "uint256",
                    "name": "",
                    "type": "uint256"
                }
            ],
            "stateMutability": "view",
            "type": "function"
        },
        {
            "inputs": [
                {
                    "internalType": "bytes",
                    "name": "",
                    "type": "bytes"
                }
            ],
            "name": "_validators",
            "outputs": [
                {
                    "internalType": "enum IKeysManager.State",
                    "name": "state",
                    "type": "uint8"
                },
                {
                    "internalType": "bytes",
                    "name": "signature",
                    "type": "bytes"
                },
                {
                    "internalType": "address",
                    "name": "nodeOperator",
                    "type": "address"
                },
                {
                    "internalType": "bytes32",
                    "name": "deposit_root",
                    "type": "bytes32"
                }
            ],
            "stateMutability": "view",
            "type": "function"
        },
        {
            "inputs": [
                {
                    "internalType": "bytes",
                    "name": "publicKey",
                    "type": "bytes"
                }
            ],
            "name": "activateValidator",
            "outputs": [],
            "stateMutability": "nonpayable",
            "type": "function"
        },
        {
            "inputs": [
                {
                    "internalType": "bytes",
                    "name": "publicKey",
                    "type": "bytes"
                },
                {
                    "internalType": "bytes",
                    "name": "signature",
                    "type": "bytes"
                },
                {
                    "internalType": "address",
                    "name": "nodeOperator",
                    "type": "address"
                }
            ],
            "name": "addValidator",
            "outputs": [],
            "stateMutability": "nonpayable",
            "type": "function"
        },
        {
            "inputs": [],
            "name": "core",
            "outputs": [
                {
                    "internalType": "contract ICore",
                    "name": "",
                    "type": "address"
                }
            ],
            "stateMutability": "view",
            "type": "function"
        },
        {
            "inputs": [],
            "name": "depositRootView",
            "outputs": [
                {
                    "internalType": "bytes32",
                    "name": "",
                    "type": "bytes32"
                }
            ],
            "stateMutability": "view",
            "type": "function"
        },
        {
            "inputs": [],
            "name": "oracle",
            "outputs": [
                {
                    "internalType": "contract IOracle",
                    "name": "",
                    "type": "address"
                }
            ],
            "stateMutability": "view",
            "type": "function"
        },
        {
            "inputs": [],
            "name": "pause",
            "outputs": [],
            "stateMutability": "nonpayable",
            "type": "function"
        },
        {
            "inputs": [],
            "name": "paused",
            "outputs": [
                {
                    "internalType": "bool",
                    "name": "",
                    "type": "bool"
                }
            ],
            "stateMutability": "view",
            "type": "function"
        },
        {
            "inputs": [
                {
                    "internalType": "address",
                    "name": "core",
                    "type": "address"
                }
            ],
            "name": "setCore",
            "outputs": [],
            "stateMutability": "nonpayable",
            "type": "function"
        },
        {
            "inputs": [],
            "name": "stkEth",
            "outputs": [
                {
                    "internalType": "contract IStkEth",
                    "name": "",
                    "type": "address"
                }
            ],
            "stateMutability": "view",
            "type": "function"
        },
        {
            "inputs": [
                {
                    "internalType": "address",
                    "name": "a",
                    "type": "address"
                }
            ],
            "name": "toBytes",
            "outputs": [
                {
                    "internalType": "bytes",
                    "name": "b",
                    "type": "bytes"
                }
            ],
            "stateMutability": "pure",
            "type": "function"
        },
        {
            "inputs": [],
            "name": "unpause",
            "outputs": [],
            "stateMutability": "nonpayable",
            "type": "function"
        },
        {
            "inputs": [
                {
                    "internalType": "bytes",
                    "name": "publicKey",
                    "type": "bytes"
                }
            ],
            "name": "validators",
            "outputs": [
                {
                    "components": [
                        {
                            "internalType": "enum IKeysManager.State",
                            "name": "state",
                            "type": "uint8"
                        },
                        {
                            "internalType": "bytes",
                            "name": "signature",
                            "type": "bytes"
                        },
                        {
                            "internalType": "address",
                            "name": "nodeOperator",
                            "type": "address"
                        },
                        {
                            "internalType": "bytes32",
                            "name": "deposit_root",
                            "type": "bytes32"
                        }
                    ],
                    "internalType": "struct IKeysManager.Validator",
                    "name": "",
                    "type": "tuple"
                }
            ],
            "stateMutability": "view",
            "type": "function"
        }
    ],
    "bytecode": "0x60806040523480156200001157600080fd5b506040516200312b3803806200312b8339818101604052810190620000379190620000b2565b8060008060006101000a81548160ff02191690831515021790555080600060016101000a81548173ffffffffffffffffffffffffffffffffffffffff021916908373ffffffffffffffffffffffffffffffffffffffff16021790555050506200012c565b600081519050620000ac8162000112565b92915050565b600060208284031215620000c557600080fd5b6000620000d5848285016200009b565b91505092915050565b6000620000eb82620000f2565b9050919050565b600073ffffffffffffffffffffffffffffffffffffffff82169050919050565b6200011d81620000de565b81146200012957600080fd5b50565b612fef806200013c6000396000f3fe608060405234801561001057600080fd5b50600436106101005760003560e01c80637cd8548511610097578063a1600a2c11610066578063a1600a2c1461027c578063a4d55d1d14610298578063d68f9cf3146102b6578063f2f4eb26146102d257610100565b80637cd854851461021a5780637dc0d1d01461023857806380009630146102565780638456cb591461027257610100565b8063593b79fe116100d3578063593b79fe146101695780635c975abb146101995780636c36511a146101b757806375202e26146101e757610100565b80631b885fff146101055780633f4ba83a14610123578063441d92cc1461012d578063540bc5ea1461014b575b600080fd5b61010d6102f0565b60405161011a91906126b9565b60405180910390f35b61012b6102fa565b005b6101356103ee565b60405161014291906128f9565b60405180910390f35b6101536103fb565b60405161016091906128f9565b60405180910390f35b610183600480360381019061017e9190612028565b610400565b60405161019091906126f8565b60405180910390f35b6101a161044b565b6040516101ae919061269e565b60405180910390f35b6101d160048036038101906101cc91906120cc565b610461565b6040516101de91906128d7565b60405180910390f35b61020160048036038101906101fc919061219a565b610615565b604051610211949392919061276b565b60405180910390f35b610222610710565b60405161022f9190612750565b60405180910390f35b6102406107b6565b60405161024d9190612735565b60405180910390f35b610270600480360381019061026b9190612028565b61085c565b005b61027a61098a565b005b61029660048036038101906102919190612111565b610a7e565b005b6102a0610f5d565b6040516102ad91906128f9565b60405180910390f35b6102d060048036038101906102cb91906120cc565b610f62565b005b6102da6111cd565b6040516102e7919061271a565b60405180910390f35b6000600254905090565b600060019054906101000a900473ffffffffffffffffffffffffffffffffffffffff1673ffffffffffffffffffffffffffffffffffffffff1663e43581b8336040518263ffffffff1660e01b81526004016103559190612683565b60206040518083038186803b15801561036d57600080fd5b505afa158015610381573d6000803e3d6000fd5b505050506040513d601f19601f820116820180604052508101906103a5919061207a565b6103e4576040517f08c379a00000000000000000000000000000000000000000000000000000000081526004016103db90612897565b60405180910390fd5b6103ec6111f6565b565b6801bc16d674ec80000081565b606081565b606060405173ffffffffffffffffffffffffffffffffffffffff8316925082741400000000000000000000000000000000000000001860148201526034810160405280915050919050565b60008060009054906101000a900460ff16905090565b610469611df1565b6001838360405161047b9291906125ad565b90815260200160405180910390206040518060800160405290816000820160009054906101000a900460ff1660028111156104df577f4e487b7100000000000000000000000000000000000000000000000000000000600052602160045260246000fd5b6002811115610517577f4e487b7100000000000000000000000000000000000000000000000000000000600052602160045260246000fd5b815260200160018201805461052b90612ba6565b80601f016020809104026020016040519081016040528092919081815260200182805461055790612ba6565b80156105a45780601f10610579576101008083540402835291602001916105a4565b820191906000526020600020905b81548152906001019060200180831161058757829003601f168201915b505050505081526020016002820160009054906101000a900473ffffffffffffffffffffffffffffffffffffffff1673ffffffffffffffffffffffffffffffffffffffff1673ffffffffffffffffffffffffffffffffffffffff168152602001600382015481525050905092915050565b6001818051602081018201805184825260208301602085012081835280955050505050506000915090508060000160009054906101000a900460ff169080600101805461066190612ba6565b80601f016020809104026020016040519081016040528092919081815260200182805461068d90612ba6565b80156106da5780601f106106af576101008083540402835291602001916106da565b820191906000526020600020905b8154815290600101906020018083116106bd57829003601f168201915b5050505050908060020160009054906101000a900473ffffffffffffffffffffffffffffffffffffffff16908060030154905084565b60008060019054906101000a900473ffffffffffffffffffffffffffffffffffffffff1673ffffffffffffffffffffffffffffffffffffffff16637cd854856040518163ffffffff1660e01b815260040160206040518083038186803b15801561077957600080fd5b505afa15801561078d573d6000803e3d6000fd5b505050506040513d601f19601f820116820180604052508101906107b191906121db565b905090565b60008060019054906101000a900473ffffffffffffffffffffffffffffffffffffffff1673ffffffffffffffffffffffffffffffffffffffff16637dc0d1d06040518163ffffffff1660e01b815260040160206040518083038186803b15801561081f57600080fd5b505afa158015610833573d6000803e3d6000fd5b505050506040513d601f19601f820116820180604052508101906108579190612051565b905090565b600060019054906101000a900473ffffffffffffffffffffffffffffffffffffffff1673ffffffffffffffffffffffffffffffffffffffff1663e43581b8336040518263ffffffff1660e01b81526004016108b79190612683565b60206040518083038186803b1580156108cf57600080fd5b505afa1580156108e3573d6000803e3d6000fd5b505050506040513d601f19601f82011682018060405250810190610907919061207a565b610946576040517f08c379a000000000000000000000000000000000000000000000000000000000815260040161093d90612897565b60405180910390fd5b80600060016101000a81548173ffffffffffffffffffffffffffffffffffffffff021916908373ffffffffffffffffffffffffffffffffffffffff16021790555050565b600060019054906101000a900473ffffffffffffffffffffffffffffffffffffffff1673ffffffffffffffffffffffffffffffffffffffff1663e43581b8336040518263ffffffff1660e01b81526004016109e59190612683565b60206040518083038186803b1580156109fd57600080fd5b505afa158015610a11573d6000803e3d6000fd5b505050506040513d601f19601f82011682018060405250810190610a35919061207a565b610a74576040517f08c379a0000000000000000000000000000000000000000000000000000000008152600401610a6b90612897565b60405180910390fd5b610a7c611297565b565b600060018686604051610a929291906125ad565b90815260200160405180910390206040518060800160405290816000820160009054906101000a900460ff166002811115610af6577f4e487b7100000000000000000000000000000000000000000000000000000000600052602160045260246000fd5b6002811115610b2e577f4e487b7100000000000000000000000000000000000000000000000000000000600052602160045260246000fd5b8152602001600182018054610b4290612ba6565b80601f0160208091040260200160405190810160405280929190818152602001828054610b6e90612ba6565b8015610bbb5780601f10610b9057610100808354040283529160200191610bbb565b820191906000526020600020905b815481529060010190602001808311610b9e57829003601f168201915b505050505081526020016002820160009054906101000a900473ffffffffffffffffffffffffffffffffffffffff1673ffffffffffffffffffffffffffffffffffffffff1673ffffffffffffffffffffffffffffffffffffffff168152602001600382015481525050905060006002811115610c60577f4e487b7100000000000000000000000000000000000000000000000000000000600052602160045260246000fd5b81600001516002811115610c9d577f4e487b7100000000000000000000000000000000000000000000000000000000600052602160045260246000fd5b14610cdd576040517f08c379a0000000000000000000000000000000000000000000000000000000008152600401610cd490612877565b60405180910390fd5b6000610ceb87878787611339565b9050600182600001906002811115610d2c577f4e487b7100000000000000000000000000000000000000000000000000000000600052602160045260246000fd5b90816002811115610d66577f4e487b7100000000000000000000000000000000000000000000000000000000600052602160045260246000fd5b8152505084848080601f016020809104026020016040519081016040528093929190818152602001838380828437600081840152601f19601f82011690508083019250505050505050826020018190525082826040019073ffffffffffffffffffffffffffffffffffffffff16908173ffffffffffffffffffffffffffffffffffffffff1681525050808260600181815250508160018888604051610e0c9291906125ad565b908152602001604051809103902060008201518160000160006101000a81548160ff02191690836002811115610e6b577f4e487b7100000000000000000000000000000000000000000000000000000000600052602160045260246000fd5b02179055506020820151816001019080519060200190610e8c929190611e6a565b5060408201518160020160006101000a81548173ffffffffffffffffffffffffffffffffffffffff021916908373ffffffffffffffffffffffffffffffffffffffff160217905550606082015181600301559050508273ffffffffffffffffffffffffffffffffffffffff168585604051610f089291906125ad565b60405180910390208888604051610f209291906125ad565b60405180910390207f1180cc2cdce407311033dcc42d2b946b96a459da7f2b97898c6d29c5cf962b7360405160405180910390a450505050505050565b603081565b610f6a6111cd565b73ffffffffffffffffffffffffffffffffffffffff16631d1438486040518163ffffffff1660e01b815260040160206040518083038186803b158015610faf57600080fd5b505afa158015610fc3573d6000803e3d6000fd5b505050506040513d601f19601f82011682018060405250810190610fe79190612051565b73ffffffffffffffffffffffffffffffffffffffff163373ffffffffffffffffffffffffffffffffffffffff1614611054576040517f08c379a000000000000000000000000000000000000000000000000000000000815260040161104b906127d7565b60405180910390fd5b6000600183836040516110689291906125ad565b90815260200160405180910390209050600160028111156110b2577f4e487b7100000000000000000000000000000000000000000000000000000000600052602160045260246000fd5b8160000160009054906101000a900460ff1660028111156110fc577f4e487b7100000000000000000000000000000000000000000000000000000000600052602160045260246000fd5b1461113c576040517f08c379a000000000000000000000000000000000000000000000000000000000815260040161113390612837565b60405180910390fd5b60028160000160006101000a81548160ff0219169083600281111561118a577f4e487b7100000000000000000000000000000000000000000000000000000000600052602160045260246000fd5b02179055507fb1c784bbe46723b5b0266a01d290f913dfce7f87a76091943212a26a2399106783836040516111c09291906126d4565b60405180910390a1505050565b60008060019054906101000a900473ffffffffffffffffffffffffffffffffffffffff16905090565b6111fe61044b565b61123d576040517f08c379a0000000000000000000000000000000000000000000000000000000008152600401611234906127b7565b60405180910390fd5b60008060006101000a81548160ff0219169083151502179055507f5db9ee0a495bf2e6ff9c91a7834c1ba4fdd244a5e8aa4e537bd38aeae4b073aa61128061182b565b60405161128d9190612683565b60405180910390a1565b61129f61044b565b156112df576040517f08c379a00000000000000000000000000000000000000000000000000000000081526004016112d6906127f7565b60405180910390fd5b60016000806101000a81548160ff0219169083151502179055507f62e78cea01bee320cd4e420270b5ea74000d11b0c9f74754ebdbfc544b05a25861132261182b565b60405161132f9190612683565b60405180910390a1565b600080633b9aca006801bc16d674ec80000061135591906129e6565b9050600061136282611833565b905061136c6111cd565b73ffffffffffffffffffffffffffffffffffffffff1663830593036040518163ffffffff1660e01b815260040160206040518083038186803b1580156113b157600080fd5b505afa1580156113c5573d6000803e3d6000fd5b505050506040513d601f19601f820116820180604052508101906113e991906120a3565b600381905550600060028888600060801b60405160200161140c93929190612609565b6040516020818303038152906040526040516114289190612633565b602060405180830381855afa158015611445573d6000803e3d6000fd5b5050506040513d601f19601f8201168201806040525081019061146891906120a3565b905060006002808888600090604092611483939291906129b3565b6040516020016114949291906125c6565b6040516020818303038152906040526040516114b09190612633565b602060405180830381855afa1580156114cd573d6000803e3d6000fd5b5050506040513d601f19601f820116820180604052508101906114f091906120a3565b600289896040908092611505939291906129b3565b6000801b60405160200161151b939291906125df565b6040516020818303038152906040526040516115379190612633565b602060405180830381855afa158015611554573d6000803e3d6000fd5b5050506040513d601f19601f8201168201806040525081019061157791906120a3565b604051602001611588929190612581565b6040516020818303038152906040526040516115a49190612633565b602060405180830381855afa1580156115c1573d6000803e3d6000fd5b5050506040513d601f19601f820116820180604052508101906115e491906120a3565b9050600060028084600354604051602001611600929190612581565b60405160208183030381529060405260405161161c9190612633565b602060405180830381855afa158015611639573d6000803e3d6000fd5b5050506040513d601f19601f8201168201806040525081019061165c91906120a3565b600286600060401b866040516020016116779392919061264a565b6040516020818303038152906040526040516116939190612633565b602060405180830381855afa1580156116b0573d6000803e3d6000fd5b5050506040513d601f19601f820116820180604052508101906116d391906120a3565b6040516020016116e4929190612581565b6040516020818303038152906040526040516117009190612633565b602060405180830381855afa15801561171d573d6000803e3d6000fd5b5050506040513d601f19601f8201168201806040525081019061174091906120a3565b905060308a8a905014611788576040517f08c379a000000000000000000000000000000000000000000000000000000000815260040161177f90612857565b60405180910390fd5b606088889050146117ce576040517f08c379a00000000000000000000000000000000000000000000000000000000081526004016117c5906128b7565b60405180910390fd5b60208060ff1614611814576040517f08c379a000000000000000000000000000000000000000000000000000000000815260040161180b90612817565b60405180910390fd5b806002819055508095505050505050949350505050565b600033905090565b6060600867ffffffffffffffff811115611876577f4e487b7100000000000000000000000000000000000000000000000000000000600052604160045260246000fd5b6040519080825280601f01601f1916602001820160405280156118a85781602001600182028036833780820191505090505b50905060008260c01b9050806007600881106118ed577f4e487b7100000000000000000000000000000000000000000000000000000000600052603260045260246000fd5b1a60f81b8260008151811061192b577f4e487b7100000000000000000000000000000000000000000000000000000000600052603260045260246000fd5b60200101907effffffffffffffffffffffffffffffffffffffffffffffffffffffffffffff1916908160001a90535080600660088110611994577f4e487b7100000000000000000000000000000000000000000000000000000000600052603260045260246000fd5b1a60f81b826001815181106119d2577f4e487b7100000000000000000000000000000000000000000000000000000000600052603260045260246000fd5b60200101907effffffffffffffffffffffffffffffffffffffffffffffffffffffffffffff1916908160001a90535080600560088110611a3b577f4e487b7100000000000000000000000000000000000000000000000000000000600052603260045260246000fd5b1a60f81b82600281518110611a79577f4e487b7100000000000000000000000000000000000000000000000000000000600052603260045260246000fd5b60200101907effffffffffffffffffffffffffffffffffffffffffffffffffffffffffffff1916908160001a90535080600460088110611ae2577f4e487b7100000000000000000000000000000000000000000000000000000000600052603260045260246000fd5b1a60f81b82600381518110611b20577f4e487b7100000000000000000000000000000000000000000000000000000000600052603260045260246000fd5b60200101907effffffffffffffffffffffffffffffffffffffffffffffffffffffffffffff1916908160001a90535080600360088110611b89577f4e487b7100000000000000000000000000000000000000000000000000000000600052603260045260246000fd5b1a60f81b82600481518110611bc7577f4e487b7100000000000000000000000000000000000000000000000000000000600052603260045260246000fd5b60200101907effffffffffffffffffffffffffffffffffffffffffffffffffffffffffffff1916908160001a90535080600260088110611c30577f4e487b7100000000000000000000000000000000000000000000000000000000600052603260045260246000fd5b1a60f81b82600581518110611c6e577f4e487b7100000000000000000000000000000000000000000000000000000000600052603260045260246000fd5b60200101907effffffffffffffffffffffffffffffffffffffffffffffffffffffffffffff1916908160001a90535080600160088110611cd7577f4e487b7100000000000000000000000000000000000000000000000000000000600052603260045260246000fd5b1a60f81b82600681518110611d15577f4e487b7100000000000000000000000000000000000000000000000000000000600052603260045260246000fd5b60200101907effffffffffffffffffffffffffffffffffffffffffffffffffffffffffffff1916908160001a90535080600060088110611d7e577f4e487b7100000000000000000000000000000000000000000000000000000000600052603260045260246000fd5b1a60f81b82600781518110611dbc577f4e487b7100000000000000000000000000000000000000000000000000000000600052603260045260246000fd5b60200101907effffffffffffffffffffffffffffffffffffffffffffffffffffffffffffff1916908160001a90535050919050565b604051806080016040528060006002811115611e36577f4e487b7100000000000000000000000000000000000000000000000000000000600052602160045260246000fd5b815260200160608152602001600073ffffffffffffffffffffffffffffffffffffffff168152602001600080191681525090565b828054611e7690612ba6565b90600052602060002090601f016020900481019282611e985760008555611edf565b82601f10611eb157805160ff1916838001178555611edf565b82800160010185558215611edf579182015b82811115611ede578251825591602001919060010190611ec3565b5b509050611eec9190611ef0565b5090565b5b80821115611f09576000816000905550600101611ef1565b5090565b6000611f20611f1b84612939565b612914565b905082815260208101848484011115611f3857600080fd5b611f43848285612b64565b509392505050565b600081359050611f5a81612f5d565b92915050565b600081519050611f6f81612f5d565b92915050565b600081519050611f8481612f74565b92915050565b600081519050611f9981612f8b565b92915050565b60008083601f840112611fb157600080fd5b8235905067ffffffffffffffff811115611fca57600080fd5b602083019150836001820283011115611fe257600080fd5b9250929050565b600082601f830112611ffa57600080fd5b813561200a848260208601611f0d565b91505092915050565b60008151905061202281612fa2565b92915050565b60006020828403121561203a57600080fd5b600061204884828501611f4b565b91505092915050565b60006020828403121561206357600080fd5b600061207184828501611f60565b91505092915050565b60006020828403121561208c57600080fd5b600061209a84828501611f75565b91505092915050565b6000602082840312156120b557600080fd5b60006120c384828501611f8a565b91505092915050565b600080602083850312156120df57600080fd5b600083013567ffffffffffffffff8111156120f957600080fd5b61210585828601611f9f565b92509250509250929050565b60008060008060006060868803121561212957600080fd5b600086013567ffffffffffffffff81111561214357600080fd5b61214f88828901611f9f565b9550955050602086013567ffffffffffffffff81111561216e57600080fd5b61217a88828901611f9f565b9350935050604061218d88828901611f4b565b9150509295509295909350565b6000602082840312156121ac57600080fd5b600082013567ffffffffffffffff8111156121c657600080fd5b6121d284828501611fe9565b91505092915050565b6000602082840312156121ed57600080fd5b60006121fb84828501612013565b91505092915050565b61220d81612a17565b82525050565b61221c81612a17565b82525050565b61222b81612a29565b82525050565b61224261223d82612a35565b612c09565b82525050565b61225961225482612a61565b612c13565b82525050565b61226881612a8d565b82525050565b61227781612a8d565b82525050565b61228e61228982612a8d565b612c1d565b82525050565b60006122a08385612986565b93506122ad838584612b64565b6122b683612ce3565b840190509392505050565b60006122cd8385612997565b93506122da838584612b64565b82840190509392505050565b60006122f18261296a565b6122fb8185612975565b935061230b818560208601612b73565b61231481612ce3565b840191505092915050565b600061232a8261296a565b6123348185612986565b9350612344818560208601612b73565b61234d81612ce3565b840191505092915050565b60006123638261296a565b61236d8185612997565b935061237d818560208601612b73565b80840191505092915050565b61239281612ae6565b82525050565b6123a181612b0a565b82525050565b6123b081612b2e565b82525050565b6123bf81612b52565b82525050565b6123ce81612b52565b82525050565b60006123e16014836129a2565b91506123ec82612cf4565b602082019050919050565b60006124046025836129a2565b915061240f82612d1d565b604082019050919050565b60006124276010836129a2565b915061243282612d6c565b602082019050919050565b600061244a6036836129a2565b915061245582612d95565b604082019050919050565b600061246d6018836129a2565b915061247882612de4565b602082019050919050565b60006124906026836129a2565b915061249b82612e0d565b604082019050919050565b60006124b36024836129a2565b91506124be82612e5c565b604082019050919050565b60006124d66021836129a2565b91506124e182612eab565b604082019050919050565b60006124f96029836129a2565b915061250482612efa565b604082019050919050565b600060808301600083015161252760008601826123b6565b506020830151848203602086015261253f82826122e6565b91505060408301516125546040860182612204565b506060830151612567606086018261225f565b508091505092915050565b61257b81612adc565b82525050565b600061258d828561227d565b60208201915061259d828461227d565b6020820191508190509392505050565b60006125ba8284866122c1565b91508190509392505050565b60006125d38284866122c1565b91508190509392505050565b60006125ec8285876122c1565b91506125f8828461227d565b602082019150819050949350505050565b60006126168285876122c1565b91506126228284612231565b601082019150819050949350505050565b600061263f8284612358565b915081905092915050565b60006126568286612358565b91506126628285612248565b601882019150612672828461227d565b602082019150819050949350505050565b60006020820190506126986000830184612213565b92915050565b60006020820190506126b36000830184612222565b92915050565b60006020820190506126ce600083018461226e565b92915050565b600060208201905081810360008301526126ef818486612294565b90509392505050565b60006020820190508181036000830152612712818461231f565b905092915050565b600060208201905061272f6000830184612389565b92915050565b600060208201905061274a6000830184612398565b92915050565b600060208201905061276560008301846123a7565b92915050565b600060808201905061278060008301876123c5565b8181036020830152612792818661231f565b90506127a16040830185612213565b6127ae606083018461226e565b95945050505050565b600060208201905081810360008301526127d0816123d4565b9050919050565b600060208201905081810360008301526127f0816123f7565b9050919050565b600060208201905081810360008301526128108161241a565b9050919050565b600060208201905081810360008301526128308161243d565b9050919050565b6000602082019050818103600083015261285081612460565b9050919050565b6000602082019050818103600083015261287081612483565b9050919050565b60006020820190508181036000830152612890816124a6565b9050919050565b600060208201905081810360008301526128b0816124c9565b9050919050565b600060208201905081810360008301526128d0816124ec565b9050919050565b600060208201905081810360008301526128f1818461250f565b905092915050565b600060208201905061290e6000830184612572565b92915050565b600061291e61292f565b905061292a8282612bd8565b919050565b6000604051905090565b600067ffffffffffffffff82111561295457612953612cb4565b5b61295d82612ce3565b9050602081019050919050565b600081519050919050565b600082825260208201905092915050565b600082825260208201905092915050565b600081905092915050565b600082825260208201905092915050565b600080858511156129c357600080fd5b838611156129d057600080fd5b6001850283019150848603905094509492505050565b60006129f182612adc565b91506129fc83612adc565b925082612a0c57612a0b612c27565b5b828204905092915050565b6000612a2282612abc565b9050919050565b60008115159050919050565b60007fffffffffffffffffffffffffffffffff0000000000000000000000000000000082169050919050565b60007fffffffffffffffffffffffffffffffffffffffffffffffff000000000000000082169050919050565b6000819050919050565b6000612aa282612a17565b9050919050565b6000819050612ab782612f49565b919050565b600073ffffffffffffffffffffffffffffffffffffffff82169050919050565b6000819050919050565b6000612af182612af8565b9050919050565b6000612b0382612abc565b9050919050565b6000612b1582612b1c565b9050919050565b6000612b2782612abc565b9050919050565b6000612b3982612b40565b9050919050565b6000612b4b82612abc565b9050919050565b6000612b5d82612aa9565b9050919050565b82818337600083830152505050565b60005b83811015612b91578082015181840152602081019050612b76565b83811115612ba0576000848401525b50505050565b60006002820490506001821680612bbe57607f821691505b60208210811415612bd257612bd1612c85565b5b50919050565b612be182612ce3565b810181811067ffffffffffffffff82111715612c0057612bff612cb4565b5b80604052505050565b6000819050919050565b6000819050919050565b6000819050919050565b7f4e487b7100000000000000000000000000000000000000000000000000000000600052601260045260246000fd5b7f4e487b7100000000000000000000000000000000000000000000000000000000600052602160045260246000fd5b7f4e487b7100000000000000000000000000000000000000000000000000000000600052602260045260246000fd5b7f4e487b7100000000000000000000000000000000000000000000000000000000600052604160045260246000fd5b6000601f19601f8301169050919050565b7f5061757361626c653a206e6f7420706175736564000000000000000000000000600082015250565b7f4b6579734d616e616765723a204f6e6c79206973737565722063616e2061637460008201527f6976617465000000000000000000000000000000000000000000000000000000602082015250565b7f5061757361626c653a2070617573656400000000000000000000000000000000600082015250565b7f4465706f736974436f6e74726163743a20696e76616c6964207769746864726160008201527f77616c5f63726564656e7469616c73206c656e67746800000000000000000000602082015250565b7f4b6579734d616e616765723a20496e76616c6964204b65790000000000000000600082015250565b7f4465706f736974436f6e74726163743a20696e76616c6964207075626b65792060008201527f6c656e6774680000000000000000000000000000000000000000000000000000602082015250565b7f4b6579734d616e616765723a2076616c696461746f7220616c7265616479206560008201527f7869737400000000000000000000000000000000000000000000000000000000602082015250565b7f436f72655265663a2043616c6c6572206973206e6f74206120676f7665726e6f60008201527f7200000000000000000000000000000000000000000000000000000000000000602082015250565b7f4465706f736974436f6e74726163743a20696e76616c6964207369676e61747560008201527f7265206c656e6774680000000000000000000000000000000000000000000000602082015250565b60038110612f5a57612f59612c56565b5b50565b612f6681612a17565b8114612f7157600080fd5b50565b612f7d81612a29565b8114612f8857600080fd5b50565b612f9481612a8d565b8114612f9f57600080fd5b50565b612fab81612a97565b8114612fb657600080fd5b5056fea2646970667358221220417938fa6bebc5143090fdc0a67b52c6357595837360d9e13d01460d7116a8d264736f6c63430008040033",
    "linkReferences": {},
    "deployedLinkReferences": {}
}